:020000040800F2
:10000000280C0020A50100085D060008190500085D
:10001000590600088F020008D70D000800000000F4
:100020000000000000000000000000005909000866
:100030009302000800000000ED060008710A0008A5
:10004000BF010008BF010008BF010008BF01000890
:10005000BF010008BF010008BF010008BF01000880
:10006000BF010008BF010008BF010008BF01000870
:10007000BF010008BF010008BF010008BF01000860
:10008000BF010008BF010008BF010008BF01000850
:10009000BF010008BF010008BF010008BF01000840
:1000A000BF010008BF010008BF010008BF01000830
:1000B000BF010008BF010008BF010008BF01000820
:1000C000BF010008BF010008BF010008BF01000810
:1000D000BF010008190B0008BF010008BF0100089C
:1000E000BF010008BF010008BF010008BF010008F0
:1000F000BF010008BF010008BF010008BF010008E0
:10010000BF010008BF010008BF010008BF010008CF
:10011000BF010008BF010008BF010008BF010008BF
:10012000BF010008BF010008BF010008BF010008AF
:10013000BF010008BF010008BF010008BF0100089F
:10014000BF010008BF010008BF010008BF0100088F
:10015000BF010008BF010008BF010008BF0100087F
:10016000BF010008BF010008BF010008BF0100086F
:10017000BF010008BF010008BF010008BF0100085F
:10018000BF010008BF010008DFF80CD000F05EF8E6
:100190000048004719120008280C002080F3088846
:1001A000704700000648804706480047FEE7FEE724
:1001B000FEE7FEE7FEE7FEE7FEE7FEE7FEE7FEE717
:1001C000B10A0008890100082DE9F05F054600200A
:1001D00092469B4688460646814640241BE02846B8
:1001E00041464746224600F020F853465A46C01A78
:1001F000914110D311461846224600F039F82D1AC5
:1002000067EB01084F4622460120002100F030F83C
:1002100017EB00094E41201EA4F10104DFDC484623
:1002200031462A464346BDE8F09F202A04DB203AA7
:1002300021FA02F00021704721FA02F3D040C2F106
:10024000200291400843194670470000064C074DB4
:1002500006E0E06840F0010394E807009847103496
:10026000AC42F6D3FFF794FF5C1400087C1400083E
:10027000202A04DB203A00FA02F100207047914066
:10028000C2F1200320FA03F319439040704700BFE6
:10029000FEE7704730B10749096841F48061054ABB
:1002A000116005E00349096821F48061014A116089
:1002B00070470000003C024070B504460A46002624
:1002C000092502B909E0012A01D1160205E0022A36
:1002D00001D1160201E04FF4407600F09FF8054688
:1002E000092D28D11548006820F440701349086092
:1002F00008460068304308600846006820F0F800AF
:1003000008600846006844F0020108430B49086091
:100310000846006840F48030086000F07FF8054629
:100320000648006820F0020004490860084600689A
:1003300020F0F8000860284670BD0000103C024024
:1003400009201349096801F48031B1F5803F01D1DA
:1003500001201CE00E49096801F0100109B10620D6
:1003600015E00B49096801F4807109B102200EE023
:100370000749096801F0E00109B1072007E00449D5
:10038000096801F0020109B1082000E00920704766
:100390000C3C02400348006840F0004001490860FE
:1003A00070470000103C024030B502460C4609255B
:1003B00000F034F80546092D19D10E48006820F4E4
:1003C00040700C4908600846006840F400700860FE
:1003D0000846006840F001000860146000F01EF854
:1003E00005460448006820F00100024908602846DC
:1003F00030BD0000103C02400548006800F000409D
:1004000028B1044802490C39086003480860704765
:10041000103C024023016745AB89EFCD08B50920A8
:100420000090FFF78DFF009002E0FFF789FF00903A
:100430009DF800000128F8D09DF8000008BDF0B537
:100440000A4600210023002400BF3DE0012505FAF3
:1004500001F3156805EA03049C4234D105684F0096
:100460000326BE40B543056015794E00B5400668C9
:10047000354305601579012D02D01579022D16D16D
:1004800085684F000326BE40B543856055794E0010
:10049000B540866835438560456801268E40B54382
:1004A0004560456896798E40B6B235434560C5686B
:1004B0004F000326BE40B543C560D5794E00B54018
:1004C000C6683543C560491C1029BFD3F0BDF0B5DF
:1004D000002300244D07ED0E02FA05F3CE1000F1C3
:1004E000200555F826504E07F70E0F26BE40B5439F
:1004F000CF1000F1200646F82750CE1000F120055D
:1005000055F8265045EA0304CE1000F1200545F8C1
:100510002640F0BD0183704700BFFEE71CB50121F6
:10052000112000F0E5F800208DF804001C20009058
:1005300001208DF8070069460748FFF780FF00207B
:100540008DF804000120009002208DF80700694614
:100550000248FFF774FF1CBD00100240000002407B
:1005600010B50446012C01D12249087021480078B9
:1005700001282AD12048006801280AD01F480068B5
:1005800038B11E48001F006818B11C4808380068C0
:10059000D8B90A2000F0A2FD0020164908701648BC
:1005A0000068012800D110BD1448006808B9022075
:1005B000F9E71248001F006808B90320F3E70F4865
:1005C00008380068A0B90420EDE70B48006878B946
:1005D0000A48006801280BD10848001F006801285C
:1005E00006D1064808380068012801D10149087081
:1005F0000020D8E7190000200002404210024242C9
:100600001CB50121202000F073F801208DF80400B2
:100610004002009003208DF8050000208DF80600B0
:1006200001208DF8070069460A48FFF708FF4FF4DC
:1006300000710848FFF76EFF4FF480600090694634
:100640000448FFF7FCFE4FF480610248FFF762FFA9
:100650001CBD00000014024000BFFEE77047000010
:1006600070B5002100230F22C4781CB3174C2468F6
:1006700004F4E064C4F5E064C4F30721C1F10404A8
:10068000E3B20A4144789C40E1B2847814402143AB
:100690000C07210E0E4C05786155047804F01F05F7
:1006A0000124AC4005786D11AD0005F1E025C5F8D9
:1006B000004109E0047804F01F050124AC40054D19
:1006C0000678761145F8264070BD00000CED00E07C
:1006D00000E400E080E100E002490143024A1160C9
:1006E000704700000000FA050CED00E070470000C4
:1006F00029B1064A12680243044B1A6004E0034A17
:1007000012688243014B1A60704700003038024083
:1007100029B1064A12680243044B1A6004E0034AF6
:1007200012688243014B1A6070470000443802404F
:10073000F0B5002100220024022500260223324FBA
:100740003F6807F00C0121B1042905D0082937D1F1
:1007500005E02E4F076036E02D4F076033E02A4F4B
:100760003F1F3F68C7F38056274F3F1F3F6807F082
:100770003F036EB1264FB7FBF3F7DFF88CC0ACF147
:10078000040CDCF800C0CCF3881C07FB0CF40CE074
:100790001E4FB7FBF3F7DFF870C0ACF1040CDCF8C8
:1007A00000C0CCF3881C07FB0CF4174F3F1F3F68B9
:1007B000C7F301477F1C7D00B4FBF5F7076002E03B
:1007C000124F076000BF00BF0F4F3F6807F0F001F6
:1007D0000909104F7A5C0768D74047600A4F3F68A5
:1007E00007F4E051890A0B4F7A5C4768D74087606D
:1007F000054F3F6807F46041490B064F7A5C476834
:10080000D740C760F0BD0000083802400024F40063
:1008100000127A000000002001461C48814201D2EB
:10082000002070471A48814201D20820F9E7194890
:10083000814201D21020F4E71748814201D21820EA
:10084000EFE71648814201D22020EAE714488142AE
:1008500001D22820E5E71348814201D23020E0E7A9
:100860001148814201D23820DBE71048814201D291
:100870004020D6E70E48814201D24820D1E70D48FA
:10088000814201D25020CCE75820CAE7004000083E
:100890000080000800C000080000010800000208F5
:1008A00000000408000006080000080800000A080C
:1008B00000000C0800000E080146086870470000A0
:1008C0002DE9F04704460E4617464FF0090800256B
:1008D000A946B4F1006F02D304F0030008B1BDE8EB
:1008E000F087FFF789FD0020FFF7D4FC254604EBD5
:1008F00087091848854215D211E02846FFF7DCFF2A
:10090000401C58B12846FFF787FF82460221FFF7B7
:10091000D3FC8046B8F1090F01D002E02D1D4D45F2
:10092000EBD300BFB8F1090F0CD108E020463168C5
:10093000FFF73AFD092800D003E0241D361D4C4581
:10094000F4D300BF0120FFF7A5FCFFF723FD00BF94
:10095000C5E700000000FF1F704700000CB5002035
:10096000019000903448006840F4803032490860BB
:1009700000BF3148006800F4003000900198401C2E
:100980000190009818B90198B0F5A04FF1D12A480C
:10099000006800F4003010B10120009001E0002058
:1009A00000900098012846D123484030006840F06C
:1009B00080502149403108602048006840F44040A0
:1009C0001E4908601C48083000681B49083108604F
:1009D0000846006840F4004008600846006840F49B
:1009E000A05008601648091F0860081F006840F002
:1009F0008070091F086000BF0F48006800F0007099
:100A00000028F9D040F205700E4908600A48083005
:100A1000006820F0030008490831086008460068B3
:100A200040F00200086000BF03480830006800F092
:100A30000C000828F8D10CBD0038024000700040BE
:100A400008544007003C0240042808D14FF0E02140
:100A5000096941F004014FF0E022116107E04FF015
:100A6000E021096921F004014FF0E0221161704793
:100A70007047000010B504466FF00400FFF7E4FF74
:100A8000E11704EB5171C1F3C701074A1170104619
:100A9000007800EB4001C1EBC0104FF6FF7101EA96
:100AA000C0000249088010BD100000201200002084
:100AB00010B51548006840F47000134908601348E9
:100AC000006840F001001149086000200F4908311A
:100AD00008600E4800680E4908400C4908600D483F
:100AE000091D0860081F006820F48020091F0860A5
:100AF000002006490C310860FFF730FF4FF000601E
:100B000001498039086010BD88ED00E000380240DE
:100B1000FFFFF6FE1030002410B540F225510B48BF
:100B200000F096F888B1094800F04CF9C4B20848C2
:100B30000088B0F55C4F08DA064805490988445436
:100B400003480088401C0249088010BD0010014085
:100B5000160000200010002010B588B004460121C6
:100B60000846FFF7C5FD01211020FFF7D1FD072240
:100B700009212448FFF7ABFC07220A212148FFF78F
:100B8000A6FC4FF4C060069002208DF81C008DF882
:100B90001D0000208DF81E0001208DF81F0006A901
:100BA0001848FFF74CFC02940020ADF80C00ADF89B
:100BB0000E00ADF81000ADF814000C20ADF81200D6
:100BC00002A9114800F094F801210F4800F027F81D
:100BD00040210D4800F01AF8012240F225510A4840
:100BE00000F060F825208DF8040003208DF8050042
:100BF0008DF8060001208DF8070001A8FFF730FDF1
:100C000008B010BD000002400010014001F4007265
:100C1000B2F5007F00D100BFCA430280704721B106
:100C2000828942F40052828104E082894DF6FF738A
:100C30001A408281704702460020B1F5007F00D142
:100C400000BF13880B400BB1012000E0002070476B
:100C500070B50246002400230025002040F66A16E5
:100C6000B14200D100BFC1F3421501F01F030126BC
:100C700006FA03F3012D02D19689334006E0022DD6
:100C800002D1168A334001E0968A33400C120126C5
:100C900006FA04F41688344013B10CB1012000E0C8
:100CA000002070BDF0B5034600240026002500207A
:100CB00040F66A17B94200D100BF1846C1F342148A
:100CC00001F01F06012707FA06F5012C01D10C30AF
:100CD00004E0022C01D1103000E014301AB1076892
:100CE0002F43076002E00768AF430760F0BD0000D4
:100CF0002DE9FF4705460E460024A14600BFA04649
:100D0000B08900B100BF2C8A24F44054F088044319
:100D10002C82AC8941F20C608443B088318908434D
:100D2000718908430443AC81AC8A24F44074B089CF
:100D30000443AC826846FFF7FBFC2048854202D0A2
:100D40001F48854202D1DDF80C9001E0DDF80890E3
:100D5000A88900F4004040B109EBC90000EB09107C
:100D600031684900B0FBF1F707E009EBC90000EB7F
:100D7000091031688900B0FBF1F76420B7FBF0F08F
:100D800004012009642101FB1078A88900F40040C7
:100D900040B1322000EBC800B0FBF1F000F00700DA
:100DA000044308E0322000EB08106421B0FBF1F0AE
:100DB00000F00F0004432C81BDE8FF8700100140C4
:100DC0000014014001468888C0F308007047C1F351
:100DD00008028280704700BFFEE700000FB4054B99
:100DE00010B503A9044A029800F018F810BC5DF889
:100DF00014FB0000611100082000002002E008C878
:100E0000121F08C1002AFAD170477047002001E084
:100E100001C1121F002AFBD1704700002DE9FF4FCE
:100E20008DB09B460F460446002606E025280BD0D1
:100E30005A460F999047641C761C20780028F5D1FB
:100E400011B03046BDE8F08F0025A8460122984930
:100E500000E0054314F8013F203B02FA03F008428A
:100E6000F7D120782E2817D114F8010F45F004058A
:100E70002A280ED06FF02F022078A0F13001092926
:100E80000AD808EB880102EB410100EB0108641C61
:100E9000F2E757F8048B641C20786C280DD004DC32
:100EA0004C2812D06A2811D104E074280DD07A2879
:100EB0000CD10AE045F4001507E0617845F480158F
:100EC000814202D1641C05F58015641C2278692AD0
:100ED00045D008DC002AB3D0582A69D0632A10D044
:100EE000642A08D13BE0702A67D0732A13D0752A90
:100EF0005CD0782A5CD010465A460F999047761CF1
:100F0000D3E017F8040B8DF8000000208DF80100E5
:100F1000E946012003E057F8049B4FF0FF306907D2
:100F20004FF0000501D40AE06D1C45450DDA8542FD
:100F3000FADB19F805100029F6D106E06D1C854290
:100F4000FCDB19F805100029F8D12E4404E019F84B
:100F5000010B5A460F9990476D1EF8D2A5E00A2062
:100F60000021CDE90801C5F3025002280DD001CFC0
:100F7000C117031E71F100030DDA4FF0000CD0EB26
:100F80000C006CEB01012D2308E0FF1D27F0070783
:100F9000F7E80201EDE72B0504D52B238DF8283067
:100FA00001233BE0EB0739D02023F7E70A2000E0DC
:100FB00010200021CDE9080107E01020002145F0B4
:100FC0000405CDE908014FF00808C5F302500228D6
:100FD0000FD001CF00214FF0000A2B071FD5702A38
:100FE0000DD0DDE908C38CF0100C5CEA030C0CD0CA
:100FF00015E0FF1D27F00707F7E80201EBE74022A5
:101000008DF828204FF0010A0BE050EA010306D0CA
:1010100030238DF828308DF8292002239A46582A4B
:1010200004D024A20DF120090B9209E026A2F9E7D1
:10103000DDE90823FFF7C8F80B9B9B5C09F8013D2D
:1010400050EA0102F4D1ADEB0900203008906807A6
:1010500001D44FF001080899884502DDA8EB010092
:1010600000E000208046002506E00AA85A46405DC0
:101070000F9990476D1C761C5545F6DB04E0302037
:101080005A460F999047761CB8F10001A8F1010863
:10109000F5DC05E019F8010B5A460F999047761CCC
:1010A0000899481E08900029F4DC641CC5E600007D
:1010B000092801003031323334353637383961622E
:1010C00063646566000000003031323334353637F2
:1010D00038394142434445460000000070B504469B
:1010E0004FF4077094FBF0F0C6B24FF4077094FB16
:1010F000F0F100FB114085B205E04FF4077000F0FD
:1011000009F8701EC6B2002EF7D115B1284600F0BE
:1011100001F870BD0146114A12884A434FF0E0239E
:101120005A6100229A611A46126942F001021A615C
:1011300000BF4FF0E022106900F001021AB100F484
:101140008032002AF5D04FF0E022126922F001022D
:101150004FF0E0231A6100229A61704712000020CC
:1011600070B504460D46E1B20548FFF730FE00BFFA
:1011700080210348FFF75FFD0028F9D0204670BDAD
:101180000010014010B50446206807490840B0F13E
:10119000005F08D16068054908602068FEF7FEFF1F
:1011A00002480068804710BD0000FE2F1C00002090
:1011B0002DE9F05F0746884691460025BB46444628
:1011C000AA461DE0E0780606A07846EA0046607868
:1011D00046EA002620780643241D2846691C8DB265
:1011E0000C4941F82060B5F5007F07D100254FF488
:1011F00000725846FFF764FB0BF5006B0AF1040A16
:10120000CA45DFD325B12A4602495846FFF758FBA5
:10121000BDE8F09F2400002000270025A820FFF74C
:1012200029FC4FF4A060FFF757FAFFF7E9F94FF4F4
:10123000E130FFF791FCFFF771F93CA0FFF7CEFD1D
:1012400073E04048008898B13E48008887420DD13D
:101250003C480588002700203A4908803AA0FFF75B
:10126000BDFD29463DA0FFF7B9FD01E035480788DF
:10127000701CC6B20A20FFF731FF1E2E08D13C4871
:10128000006808B9012000E0002039490860002604
:101290000020FFF765F90446012C1AD1B5B135A03D
:1012A000FFF79CFD3848406800F07F40B0F1006FC8
:1012B00008D12A4635493648FFF77AFF35A0FFF7AF
:1012C0008DFD06E037A0FFF789FD02E03AA0FFF7A9
:1012D00085FD042C08D125B13DA0FFF77FFD002539
:1012E00002E03FA0FFF77AFD032C10D142A0FFF7E8
:1012F00075FD4848406800F07F40B0F1006F03D1B1
:101300004448FFF73FFF02E043A0FFF767FD022CD0
:101310000BD12A461E493F48FFF7D2FA294645A07D
:10132000FFF75CFD47A0FFF759FD8AE7BDF8C8EB62
:10133000626F6F746C6F61646572C4A3CABD210D66
:101340000A09000016000020D3C3BBA7B3CCD0F21B
:10135000BDD3CAD5CDEAB3C9210D0A00B4FAC2EB98
:10136000B3A4B6C83A256442797465730D0A0000C7
:10137000A4824242BFAACABCB8FCD0C2B9CCBCFE4F
:101380002E2E2E0D0A00000000100020001000205C
:1013900000000808B9CCBCFEB8FCD0C2CDEAB3C985
:1013A000210D0A00B7C7464C415348D3A6D3C3B357
:1013B000CCD0F2210D0A0000C3BBD3D0BFC9D2D418
:1013C000B8FCD0C2B5C4B9CCBCFE210D0A000000E7
:1013D000B9CCBCFEC7E5B3FDCDEAB3C9210D0A0007
:1013E000C3BBD3D0BFC9D2D4C7E5B3FDB5C4B9CC54
:1013F000BCFE210D0A000000BFAACABCD6B4D0D0E2
:10140000464C415348D3C3BBA7B4FAC2EB21210ACF
:101410000000000000000108B7C7464C415348D304
:10142000A6D3C3B3CCD0F22CCEDEB7A8D6B4D0D0DE
:10143000210D0A00B9CCBCFEB4F3D0A1A3BA256437
:101440000D0A0000B9CCBCFEBFBDB1B4B5BD617022
:101450007031CDEAB3C9210D0A0000007C140008E8
:101460000000002024000000FC0D0008A01400086B
:1014700024000020DCEB00000C0E0008000000003F
:10148000010203040102030406070809000000002A
:10149000000000000001000000000000000000004B
:040000050800018965
:00000001FF
